{
  "transactions": [
    {
      "hash": "0xf224d896ff4466c23cf9754acaee7bd645c93a8202641da6a0f60c4dcf25a233",
      "transactionType": "CREATE",
      "contractName": "ILInsuranceFund",
      "contractAddress": "0x05e4205176ed9c44e3936f7c8094c25b5cc513e8",
      "function": null,
      "arguments": [
        "0xa8bcD8ca1561C3F4716490157B74Aa7FfFB9b58C"
      ],
      "transaction": {
        "from": "0xa8bcd8ca1561c3f4716490157b74aa7fffb9b58c",
        "gas": "0x69070",
        "value": "0x0",
        "input": "0x608034606f57601f61051c38819003918201601f19168301916001600160401b03831184841017607357808492602094604052833981010312606f57516001600160a01b03811690819003606f575f80546001600160a01b03191691909117905560405161049490816100888239f35b5f80fd5b634e487b7160e01b5f52604160045260245ffdfe6080806040526004361015610057575b50361561001a575f80fd5b61002634600254610451565b6002556040513481527f2da466a7b24304f47e87fa2e1e5a81b9831ce54fec19055ce277ca2f39ba42c460203392a2005b5f3560e01c90816316c38b3c146103e9575080632bc43fd9146102b05780632e1a7d4d1461025e5780633dfd3873146101c35780635c975abb146101a15780637f5a7c7b146101795780638da4d3c91461015c5780638da5cb5b14610135578063b69ef8a81461011a578063d54ad2a1146100fd5763ff50abdc146100dc575f61000f565b346100f9575f3660031901126100f9576020600254604051908152f35b5f80fd5b346100f9575f3660031901126100f9576020600354604051908152f35b346100f9575f3660031901126100f957602047604051908152f35b346100f9575f3660031901126100f9575f546040516001600160a01b039091168152602090f35b346100f9575f3660031901126100f9576020600454604051908152f35b346100f9575f3660031901126100f9576001546040516001600160a01b039091168152602090f35b346100f9575f3660031901126100f957602060ff600554166040519015158152f35b346100f95760203660031901126100f9576004356001600160a01b038116908190036100f9575f546001600160a01b0316330361024f576001546001600160a01b038116610240576001600160a01b03191681176001557f4eab7b127c764308788622363ad3e9532de3dfba7845bd4f84c125a22544255a5f80a2005b635f7c8ab560e11b5f5260045ffd5b635fc483c560e01b5f5260045ffd5b346100f95760203660031901126100f9575f54600435906001600160a01b03163381900361024f575f80809381938282156102a7575bf11561029c57005b6040513d5f823e3d90fd5b506108fc610294565b346100f95760603660031901126100f9576004356001600160a01b038116908190036100f9576001546024359190604435906001600160a01b031633036103da5760ff600554166103cb57479081156103bc578381029080820485149015171561039157614e20600a910491048082105f146103b45750915b82156103a55761033b83600354610451565b600355600454905f198214610391575f80808686807f987d620f307ff6b94d58743cb7a7509f24071586a77759b77c2d4e29f75a2f9a6040859860018b016004558151908682526020820152a282f11561029c57005b634e487b7160e01b5f52601160045260245ffd5b635788801b60e11b5f5260045ffd5b905091610329565b63356680b760e01b5f5260045ffd5b63ab35696f60e01b5f5260045ffd5b635a91834f60e01b5f5260045ffd5b346100f95760203660031901126100f9576004358015158091036100f9575f546001600160a01b0316330361024f577f0e2fb031ee032dc02d8011dc50b816eb450cf856abd8261680dac74f72165bd29160209160ff196005541660ff8216176005558152a1005b919082018092116103915756fea26469706673582212204f91dfcacbb9f39eca10aad352c537e3e0ad00430a642d7411c0bfcb9999ebcd64736f6c634300081a0033000000000000000000000000a8bcd8ca1561c3f4716490157b74aa7fffb9b58c",
        "nonce": "0x0",
        "chainId": "0x515"
      },
      "additionalContracts": [],
      "isFixedGasLimit": false
    },
    {
      "hash": "0x512ce0cdfd4105020d9e792f3fc0524ce43a47ba02b1cc2c8656ed4eb18abc74",
      "transactionType": "CREATE2",
      "contractName": "NeuralHook",
      "contractAddress": "0x294718c8b40d47a26de7edd0e74db2d6a377c9c0",
      "function": null,
      "arguments": [
        "0x00B036B58a818B1BC34d502D3fE730Db729e62AC",
        "0xa8bcD8ca1561C3F4716490157B74Aa7FfFB9b58C",
        "0x05e4205176eD9c44e3936F7c8094c25b5Cc513e8"
      ],
      "transaction": {
        "from": "0xa8bcd8ca1561c3f4716490157b74aa7fffb9b58c",
        "to": "0x4e59b44847b379578588920ca78fbf26c0b4956c",
        "gas": "0x1c8e00",
        "value": "0x0",
        "input": "0x000000000000000000000000000000000000000000000000000000000000523760e03461012e57601f6116a538819003918201601f19168301916001600160401b038311848410176101325780849260609460405283398101031261012e5761004781610146565b604061005560208401610146565b9201516001600160a01b038116929083900361012e57600180546001600160a01b03938416608052600164ffffffff0160a01b0319169190921617607d60aa1b17905560a0524660c0525f80546001600160a01b0319163317905560405161154a908161015b82396080518181816101f301528181610279015281816102cf015281816103f00152818161048e0152818161053001528181610696015281816106e801528181610c4001528181610d460152610e9a015260a0518181816103ad0152610843015260c0518181816109e90152610cb20152f35b5f80fd5b634e487b7160e01b5f52604160045260245ffd5b51906001600160a01b038216820361012e5756fe60806040526004361015610011575f80fd5b5f803560e01c806302d0853f14610f8057806314bcec9f14610f6357806316c38b3c14610ede57806321d0ee7014610e87578063259982e514610d355780632984a81a14610d0c5780632d29abdc14610cf15780633add5c0514610cd557806353190da114610c9b578063575e24b414610be85780635c975abb14610bc357806361833b9c146108f857806363075eb9146108dc5780636c2bbe7e146106d65780636fe7e6eb1461065a5780637adbf973146105da5780638acb698a146105be5780638da5cb5b146105975780639aa90ca71461057b5780639f063efc1461051c578063b289e3b0146104d7578063b47b2fb114610435578063b6a8b0fa146103dc578063b790230314610397578063be23e8661461037b578063c0850ce71461035e578063ca21624714610341578063caca95a414610324578063da3c300d146102fe578063dc4c90d3146102b9578063dc98354e14610247578063e1b4af69146101df578063e2048503146101b65763ffde0f9714610190575f80fd5b346101b357806003193601126101b357602060ff60015460c01c16604051908152f35b80fd5b50346101b357806003193601126101b3576001546040516001600160a01b039091168152602090f35b50346101b3576101ee3661112c565b5050507f00000000000000000000000000000000000000000000000000000000000000006001600160a01b0316330392506102389150505760405163e1b4af6960e01b8152602090f35b63f655705d60e01b8152600490fd5b50346101b35760e03660031901126101b357610261610fe0565b5060a03660231901126101b357610276611106565b507f00000000000000000000000000000000000000000000000000000000000000006001600160a01b0316330361023857604051636e4c1aa760e11b8152602090f35b50346101b357806003193601126101b3576040517f00000000000000000000000000000000000000000000000000000000000000006001600160a01b03168152602090f35b50346101b357806003193601126101b357602062ffffff60015460a81c16604051908152f35b50346101b357806003193601126101b35760206040516102588152f35b50346101b357806003193601126101b3576020604051610bb88152f35b50346101b357806003193601126101b35760206040516127108152f35b50346101b357806003193601126101b357602060405160038152f35b50346101b357806003193601126101b3576040517f00000000000000000000000000000000000000000000000000000000000000006001600160a01b03168152602090f35b50346101b3576103eb3661112c565b5050507f00000000000000000000000000000000000000000000000000000000000000006001600160a01b03163303925061023891505057604051635b54587d60e11b8152602090f35b50346101b3576101603660031901126101b357610450610fe0565b5060a03660231901126101b35760603660c31901126101b3576101443567ffffffffffffffff81116104d35761048a90369060040161100a565b50507f00000000000000000000000000000000000000000000000000000000000000006001600160a01b031633036102385760409081519063b47b2fb160e01b82526020820152f35b5080fd5b50346101b35760403660031901126101b35760406104f3610fca565b9160043581526004602052209060018060a01b03165f52602052602060405f2054604051908152f35b50346101b35761052b3661109c565b5050507f00000000000000000000000000000000000000000000000000000000000000006001600160a01b03163303935061023892505050576040908151906327c18fbf60e21b82526020820152f35b50346101b357806003193601126101b357602060405160028152f35b50346101b357806003193601126101b357546040516001600160a01b039091168152602090f35b50346101b357806003193601126101b357602090604051908152f35b50346101b35760203660031901126101b3576105f4610fe0565b81546001600160a01b0316330361064b57600180546001600160a01b0319166001600160a01b039290921691821790557f3df77beb5db05fcdd70a30fc8adf3f83f9501b68579455adbd100b81809403948280a280f35b635fc483c560e01b8252600482fd5b50346101b3576101003660031901126101b357610675610fe0565b5060a03660231901126101b35761068a611106565b5061069361111c565b507f00000000000000000000000000000000000000000000000000000000000000006001600160a01b0316330361023857604051636fe7e6eb60e01b8152602090f35b50346108c0576106e53661109c565b507f0000000000000000000000000000000000000000000000000000000000000000969594935050506001600160a01b038516330390506108cd5761072d60a09136906111a6565b205f8181526003602090815260408083206001600160a01b038681168552925290912054919491169081610773575b60408051633615df3f60e11b815260208101869052f35b906107818561079393611394565b5050506001600160a01b031690611267565b92805f52600460205260405f2060018060a01b0383165f5260205260405f205493817f0a97dc7d23b4db9f07972f34f44d040e6aceb5bfaa0095318c6311646b7362c46020604051848152a260648111806108c4575b610841575b508083526003602090815260408085206001600160a01b03949094165f81815294835281852080546001600160a01b0319169055928552600482528085209284529190528082208390559250808061075c565b7f00000000000000000000000000000000000000000000000000000000000000006001600160a01b031690813b156108c05760409560645f928389519586948593632bc43fd960e01b855260018060a01b038b166004860152602485015260448401525af1156107ee576108b89193505f90611184565b5f915f6107ee565b5f80fd5b508415156107e9565b63f655705d60e01b5f5260045ffd5b346108c0575f3660031901126108c0576020604051611d4c8152f35b346108c0576101003660031901126108c05760243560ff81168082036108c0576064359062ffffff8216928383036108c0576084358015158091036108c05760a4359460ff861686036108c05760c4359260e43567ffffffffffffffff81116108c05761096990369060040161100a565b6001549860ff8a60a01c16610bb4576102588701808811610ba0574211610b9157620f42408511610b82576040516020810191600435835260ff60f81b8660f81b166040830152604435604183015262ffffff60e81b8b60e81b1660618301528760f81b606483015260ff60f81b9060f81b1660658201528760668201527f000000000000000000000000000000000000000000000000000000000000000060868201523060601b60a6820152609a8152610a2560ba82611184565b51902060405160208101917f19457468657265756d205369676e6564204d6573736167653a0a3332000000008352603c820152603c8152610a67605c82611184565b51902067ffffffffffffffff8211610b6e5760405191610a91601f8201601f191660200184611184565b80835236818501116108c0576020815f92610ab3968387013784010152611458565b506004811015610b5a571590811591610b43575b50610b34577f6a5c0dae524af6ed70253d2b3bd2ecdb3509fd21a454559f2c1f776bc7f33ebf9660809662ffffff60a81b9060a81b169160ff60c01b9060c01b169063ffffffff60a81b1916171760015582600255604051938452602084015260408301526060820152a1005b638baa579f60e01b5f5260045ffd5b6001600160a01b0389811691161415905088610ac7565b634e487b7160e01b5f52602160045260245ffd5b634e487b7160e01b5f52604160045260245ffd5b6358d620b360e01b5f5260045ffd5b639469143d60e01b5f5260045ffd5b634e487b7160e01b5f52601160045260245ffd5b63ab35696f60e01b5f5260045ffd5b346108c0575f3660031901126108c057602060ff60015460a01c166040519015158152f35b346108c0576101403660031901126108c057610c02610fe0565b5060a03660231901126108c05760603660c31901126108c0576101243567ffffffffffffffff81116108c057610c3c90369060040161100a565b50507f00000000000000000000000000000000000000000000000000000000000000006001600160a01b031633036108cd57606062ffffff60015460a81c1662400000604051916315d7892d60e21b83525f6020840152176040820152f35b346108c0575f3660031901126108c05760206040517f00000000000000000000000000000000000000000000000000000000000000008152f35b346108c0575f3660031901126108c05760206040516101f48152f35b346108c0575f3660031901126108c057602060405160018152f35b346108c05760403660031901126108c0576020610d2d602435600435611267565b604051908152f35b346108c057610d4336611038565b507f0000000000000000000000000000000000000000000000000000000000000000939290506001600160a01b03841633036108cd5760a0610d89610d919236906111a6565b208094611394565b5050505f8481526003602090815260408083206001600160a01b0387811685529252909120541615610dd0575b60405163259982e560e01b8152602090f35b5f8481526003602090815260408083206001600160a01b03808816855290835281842080546001600160a01b0319169590911694851790557f1dc1e79998492a366b474c814d630d55c69f3880392a8d725892984f68833aa49591949192910135908390821315610e7657610e4491611236565b60601c905b855f526004845260405f209060018060a01b03165f52835260405f2055604051908152a280808080610dbe565b505067016345785d8a000090610e49565b346108c057610e9536611038565b5050507f00000000000000000000000000000000000000000000000000000000000000006001600160a01b0316330391506108cd90505760405163021d0ee760e41b8152602090f35b346108c05760203660031901126108c0576004358015158091036108c0575f546001600160a01b03163303610f54576001805460ff60a01b191660a083901b60ff60a01b161790556040519081527f0e2fb031ee032dc02d8011dc50b816eb450cf856abd8261680dac74f72165bd290602090a1005b635fc483c560e01b5f5260045ffd5b346108c0575f3660031901126108c0576020600254604051908152f35b346108c05760403660031901126108c057610f99610fca565b6004355f9081526003602090815260408083206001600160a01b039485168452825291829020549151919092168152f35b602435906001600160a01b03821682036108c057565b600435906001600160a01b03821682036108c057565b35906001600160a01b03821682036108c057565b9181601f840112156108c05782359167ffffffffffffffff83116108c057602083818601950101116108c057565b906101606003198301126108c0576004356001600160a01b03811681036108c0579160a06023198201126108c057602491608060c3198301126108c05760c491610144359067ffffffffffffffff82116108c0576110989160040161100a565b9091565b906101a06003198301126108c0576004356001600160a01b03811681036108c0579160a06023198201126108c057602491608060c3198301126108c05760c49161014435916101643591610184359067ffffffffffffffff82116108c0576110989160040161100a565b60c435906001600160a01b03821682036108c057565b60e435908160020b82036108c057565b6101206003198201126108c0576004356001600160a01b03811681036108c0579160a06023198301126108c05760249160c4359160e43591610104359067ffffffffffffffff82116108c0576110989160040161100a565b90601f8019910116810190811067ffffffffffffffff821117610b6e57604052565b91908260a09103126108c05760405160a0810181811067ffffffffffffffff821117610b6e5760405280926111da81610ff6565b82526111e860208201610ff6565b6020830152604081013562ffffff811681036108c05760408301526060810135908160020b82036108c057606083019190915260800135906001600160a01b03821682036108c05760800152565b81810292918115918404141715610ba057565b8115611253570490565b634e487b7160e01b5f52601260045260245ffd5b908115801561138c575b6113865780821191821561137f5780925b1561137857505b670de0b6b3a7640000820291808304670de0b6b3a76400001490151715610ba0576112b391611249565b670de0b6b3a76400006112c68280611236565b048160011b9160018060ff1b03811603610ba057670de0b6b3a76400000180670de0b6b3a764000011610ba057670de0b6b3a7640000820291808304670de0b6b3a76400001490151715610ba05761131d91611249565b670de0b6b3a76400008110156113735780670de0b6b3a76400000390670de0b6b3a76400008211610ba05761271082029182046127101490670de0b6b3a7640000141715610ba057670de0b6b3a7640000900490565b505f90565b9050611289565b8192611282565b50505f90565b508015611271565b919060209060405182810191825260066040820152604081526113b8606082611184565b519020604051631e2eaeaf60e01b8152600481019190915292839060249082906001600160a01b03165afa91821561144d575f92611419575b506001600160a01b0382169160a081901c60020b9162ffffff60b883901c81169260d01c1690565b9091506020813d602011611445575b8161143560209383611184565b810103126108c05751905f6113f1565b3d9150611428565b6040513d5f823e3d90fd5b8151919060418303611488576114819250602082015190606060408401519301515f1a90611492565b9192909190565b50505f9160029190565b91907f7fffffffffffffffffffffffffffffff5d576e7357a4501ddfe92f46681b20a08411611509579160209360809260ff5f9560405194855216868401526040830152606082015282805260015afa1561144d575f516001600160a01b038116156114ff57905f905f90565b505f906001905f90565b5050505f916003919056fea2646970667358221220e65ab80d82a0f18310dc4926a0319236ac94bf84181aab3c507d426b48f0467264736f6c634300081a003300000000000000000000000000b036b58a818b1bc34d502d3fe730db729e62ac000000000000000000000000a8bcd8ca1561c3f4716490157b74aa7fffb9b58c00000000000000000000000005e4205176ed9c44e3936f7c8094c25b5cc513e8",
        "nonce": "0x1",
        "chainId": "0x515"
      },
      "additionalContracts": [],
      "isFixedGasLimit": false
    },
    {
      "hash": "0xb97d0a8b494e8762dd2c56df3a3485ef059339534427b9721adad1cb8c5f5084",
      "transactionType": "CALL",
      "contractName": "ILInsuranceFund",
      "contractAddress": "0x05e4205176ed9c44e3936f7c8094c25b5cc513e8",
      "function": "setHook(address)",
      "arguments": [
        "0x294718C8B40d47A26DE7Edd0e74Db2D6a377c9c0"
      ],
      "transaction": {
        "from": "0xa8bcd8ca1561c3f4716490157b74aa7fffb9b58c",
        "to": "0x05e4205176ed9c44e3936f7c8094c25b5cc513e8",
        "gas": "0xfe38",
        "value": "0x0",
        "input": "0x3dfd3873000000000000000000000000294718c8b40d47a26de7edd0e74db2d6a377c9c0",
        "nonce": "0x2",
        "chainId": "0x515"
      },
      "additionalContracts": [],
      "isFixedGasLimit": false
    },
    {
      "hash": "0x9ced0c23d4a66f12f12a6f499e3bca1b1e4dea5e5018eab05526c5d7925f5ca3",
      "transactionType": "CALL",
      "contractName": null,
      "contractAddress": "0x05e4205176ed9c44e3936f7c8094c25b5cc513e8",
      "function": null,
      "arguments": null,
      "transaction": {
        "from": "0xa8bcd8ca1561c3f4716490157b74aa7fffb9b58c",
        "to": "0x05e4205176ed9c44e3936f7c8094c25b5cc513e8",
        "gas": "0xf0e1",
        "value": "0x2386f26fc10000",
        "input": "0x",
        "nonce": "0x3",
        "chainId": "0x515"
      },
      "additionalContracts": [],
      "isFixedGasLimit": false
    },
    {
      "hash": "0x85c28df5ca6428b4bfa919261ea8090e6662599aafa0b3f877500cea662db736",
      "transactionType": "CALL",
      "contractName": null,
      "contractAddress": "0x00b036b58a818b1bc34d502d3fe730db729e62ac",
      "function": "initialize((address,address,uint24,int24,address),uint160)",
      "arguments": [
        "(0x0000000000000000000000000000000000000000, 0x31d0220469e10c4E71834a79b1f276d740d3768F, 8388608, 60, 0x294718C8B40d47A26DE7Edd0e74Db2D6a377c9c0)",
        "1771595571142957166519155961327389600"
      ],
      "transaction": {
        "from": "0xa8bcd8ca1561c3f4716490157b74aa7fffb9b58c",
        "to": "0x00b036b58a818b1bc34d502d3fe730db729e62ac",
        "gas": "0x117a3",
        "value": "0x0",
        "input": "0x6276cbbe000000000000000000000000000000000000000000000000000000000000000000000000000000000000000031d0220469e10c4e71834a79b1f276d740d3768f0000000000000000000000000000000000000000000000000000000000800000000000000000000000000000000000000000000000000000000000000000003c000000000000000000000000294718c8b40d47a26de7edd0e74db2d6a377c9c00000000000000000000000000000000001553267c66643216002f811eeea0ba0",
        "nonce": "0x4",
        "chainId": "0x515"
      },
      "additionalContracts": [],
      "isFixedGasLimit": false
    }
  ],
  "receipts": [
    {
      "status": "0x1",
      "cumulativeGasUsed": "0x90809",
      "logs": [],
      "logsBloom": "0x00000000000000000000000000000000000000000000000000000000000000000000000000000000000000000000000000000000000000000000000000000000000000000000000000000000000000000000000000000000000000000000000000000000000000000000000000000000000000000000000000000000000000000000000000000000000000000000000000000000000000000000000000000000000000000000000000000000000000000000000000000000000000000000000000000000000000000000000000000000000000000000000000000000000000000000000000000000000000000000000000000000000000000000000000000000",
      "type": "0x2",
      "transactionHash": "0xf224d896ff4466c23cf9754acaee7bd645c93a8202641da6a0f60c4dcf25a233",
      "transactionIndex": "0x4",
      "blockHash": "0x99d3158d2d28ca1a6f96bc4d36b4842fec0e931fc0249cf45e1dbc45f4701add",
      "blockNumber": "0x308c202",
      "gasUsed": "0x50ca5",
      "effectiveGasPrice": "0x7a121",
      "blobGasUsed": "0x566d0",
      "from": "0xa8bcd8ca1561c3f4716490157b74aa7fffb9b58c",
      "to": null,
      "contractAddress": "0x05e4205176ed9c44e3936f7c8094c25b5cc513e8",
      "daFootprintGasScalar": "0x190",
      "l1BaseFeeScalar": "0x7d0",
      "l1BlobBaseFee": "0x1",
      "l1BlobBaseFeeScalar": "0xdbba0",
      "l1Fee": "0x4c6",
      "l1GasPrice": "0xf",
      "l1GasUsed": "0x375e"
    },
    {
      "status": "0x1",
      "cumulativeGasUsed": "0x1c8e54",
      "logs": [],
      "logsBloom": "0x00000000000000000000000000000000000000000000000000000000000000000000000000000000000000000000000000000000000000000000000000000000000000000000000000000000000000000000000000000000000000000000000000000000000000000000000000000000000000000000000000000000000000000000000000000000000000000000000000000000000000000000000000000000000000000000000000000000000000000000000000000000000000000000000000000000000000000000000000000000000000000000000000000000000000000000000000000000000000000000000000000000000000000000000000000000",
      "type": "0x2",
      "transactionHash": "0xb97d0a8b494e8762dd2c56df3a3485ef059339534427b9721adad1cb8c5f5084",
      "transactionIndex": "0x5",
      "blockHash": "0x99d3158d2d28ca1a6f96bc4d36b4842fec0e931fc0249cf45e1dbc45f4701add",
      "blockNumber": "0x308c202",
      "gasUsed": "0x13864b",
      "effectiveGasPrice": "0x7a121",
      "blobGasUsed": "0x133080",
      "from": "0xa8bcd8ca1561c3f4716490157b74aa7fffb9b58c",
      "to": "0x4e59b44847b379578588920ca78fbf26c0b4956c",
      "contractAddress": null,
      "daFootprintGasScalar": "0x190",
      "l1BaseFeeScalar": "0x7d0",
      "l1BlobBaseFee": "0x1",
      "l1BlobBaseFeeScalar": "0xdbba0",
      "l1Fee": "0x10f3",
      "l1GasPrice": "0xf",
      "l1GasUsed": "0xc487"
    },
    {
      "status": "0x1",
      "cumulativeGasUsed": "0x1d4662",
      "logs": [
        {
          "address": "0x05e4205176ed9c44e3936f7c8094c25b5cc513e8",
          "topics": [
            "0x4eab7b127c764308788622363ad3e9532de3dfba7845bd4f84c125a22544255a",
            "0x000000000000000000000000294718c8b40d47a26de7edd0e74db2d6a377c9c0"
          ],
          "data": "0x",
          "blockHash": "0x99d3158d2d28ca1a6f96bc4d36b4842fec0e931fc0249cf45e1dbc45f4701add",
          "blockNumber": "0x308c202",
          "blockTimestamp": "0x69f66f4e",
          "transactionHash": "0x512ce0cdfd4105020d9e792f3fc0524ce43a47ba02b1cc2c8656ed4eb18abc74",
          "transactionIndex": "0x6",
          "logIndex": "0x2",
          "removed": false
        }
      ],
      "logsBloom": "0x00004100000000000000000000000000000000000000000000000000000000000000000000000000000000000000000008000000000000000000000000000000000000000000000000000000000000000000000000000000000000000000000000000000000000000000000000000000000000000000000000000000000000800000000000000000000000400000000000000000000000000000000000000000000000000000008000000000000000000000000000000000000000000000000000004000000000000100000000000000000000000000000000000000000000000000000000000000000000000000000000000000000000000000200000000000",
      "type": "0x2",
      "transactionHash": "0x512ce0cdfd4105020d9e792f3fc0524ce43a47ba02b1cc2c8656ed4eb18abc74",
      "transactionIndex": "0x6",
      "blockHash": "0x99d3158d2d28ca1a6f96bc4d36b4842fec0e931fc0249cf45e1dbc45f4701add",
      "blockNumber": "0x308c202",
      "gasUsed": "0xb80e",
      "effectiveGasPrice": "0x7a121",
      "blobGasUsed": "0x9c40",
      "from": "0xa8bcd8ca1561c3f4716490157b74aa7fffb9b58c",
      "to": "0x05e4205176ed9c44e3936f7c8094c25b5cc513e8",
      "contractAddress": null,
      "daFootprintGasScalar": "0x190",
      "l1BaseFeeScalar": "0x7d0",
      "l1BlobBaseFee": "0x1",
      "l1BlobBaseFeeScalar": "0xdbba0",
      "l1Fee": "0x8a",
      "l1GasPrice": "0xf",
      "l1GasUsed": "0x640"
    },
    {
      "status": "0x1",
      "cumulativeGasUsed": "0x20e671",
      "logs": [
        {
          "address": "0x05e4205176ed9c44e3936f7c8094c25b5cc513e8",
          "topics": [
            "0x2da466a7b24304f47e87fa2e1e5a81b9831ce54fec19055ce277ca2f39ba42c4",
            "0x000000000000000000000000a8bcd8ca1561c3f4716490157b74aa7fffb9b58c"
          ],
          "data": "0x000000000000000000000000000000000000000000000000002386f26fc10000",
          "blockHash": "0x99d3158d2d28ca1a6f96bc4d36b4842fec0e931fc0249cf45e1dbc45f4701add",
          "blockNumber": "0x308c202",
          "blockTimestamp": "0x69f66f4e",
          "transactionHash": "0x9ced0c23d4a66f12f12a6f499e3bca1b1e4dea5e5018eab05526c5d7925f5ca3",
          "transactionIndex": "0x9",
          "logIndex": "0x5",
          "removed": false
        }
      ],
      "logsBloom": "0x00004000000000000000000000000000000000000000000000000000000000000000000000000000000000000000000000400000000000000000000000001000000000000000000000000000000000000000000000000000000000000000200000000000000000000000000000000000000000000000000000000000000200800000000000000000000000000000000000000000000000000000000000000000000000000000000000000000000000000000000000000000000000000000000000000000000000000000000000000000000000000000000000000000000000000040000000000000000000000000000000000000000000000000200010000000",
      "type": "0x2",
      "transactionHash": "0x9ced0c23d4a66f12f12a6f499e3bca1b1e4dea5e5018eab05526c5d7925f5ca3",
      "transactionIndex": "0x9",
      "blockHash": "0x99d3158d2d28ca1a6f96bc4d36b4842fec0e931fc0249cf45e1dbc45f4701add",
      "blockNumber": "0x308c202",
      "gasUsed": "0xae65",
      "effectiveGasPrice": "0x7a121",
      "blobGasUsed": "0x9c40",
      "from": "0xa8bcd8ca1561c3f4716490157b74aa7fffb9b58c",
      "to": "0x05e4205176ed9c44e3936f7c8094c25b5cc513e8",
      "contractAddress": null,
      "daFootprintGasScalar": "0x190",
      "l1BaseFeeScalar": "0x7d0",
      "l1BlobBaseFee": "0x1",
      "l1BlobBaseFeeScalar": "0xdbba0",
      "l1Fee": "0x8a",
      "l1GasPrice": "0xf",
      "l1GasUsed": "0x640"
    },
    {
      "status": "0x1",
      "cumulativeGasUsed": "0x21b0e5",
      "logs": [
        {
          "address": "0x00b036b58a818b1bc34d502d3fe730db729e62ac",
          "topics": [
            "0xdd466e674ea557f56295e2d0218a125ea4b4f0f6f3307b95f85e6110838d6438",
            "0xaaefe831c9a87c70d948d2cbbbafa39038b07c280a9bcff256a091d4cfdc0138",
            "0x0000000000000000000000000000000000000000000000000000000000000000",
            "0x00000000000000000000000031d0220469e10c4e71834a79b1f276d740d3768f"
          ],
          "data": "0x0000000000000000000000000000000000000000000000000000000000800000000000000000000000000000000000000000000000000000000000000000003c000000000000000000000000294718c8b40d47a26de7edd0e74db2d6a377c9c00000000000000000000000000000000001553267c66643216002f811eeea0ba00000000000000000000000000000000000000000000000000000000000052a29",
          "blockHash": "0x99d3158d2d28ca1a6f96bc4d36b4842fec0e931fc0249cf45e1dbc45f4701add",
          "blockNumber": "0x308c202",
          "blockTimestamp": "0x69f66f4e",
          "transactionHash": "0x85c28df5ca6428b4bfa919261ea8090e6662599aafa0b3f877500cea662db736",
          "transactionIndex": "0xa",
          "logIndex": "0x6",
          "removed": false
        }
      ],
      "logsBloom": "0x00000000000000000000000000000000000000000000000000000000000000000000000000000080000000000000000000000000000000000000000000000000000000000000000000000000000000000000000000000000000000000000000000000000020000000000000000000800000000000000000000000000000000000000000000000008000000000008000000000001000000000000000000200040000000000000000000000000000000000000000000000000010000000000000000000000000000008000000000000020000000000000000000000000000020000000000000001000000000000000000000000000000002000000000000000010",
      "type": "0x2",
      "transactionHash": "0x85c28df5ca6428b4bfa919261ea8090e6662599aafa0b3f877500cea662db736",
      "transactionIndex": "0xa",
      "blockHash": "0x99d3158d2d28ca1a6f96bc4d36b4842fec0e931fc0249cf45e1dbc45f4701add",
      "blockNumber": "0x308c202",
      "gasUsed": "0xca74",
      "effectiveGasPrice": "0x7a121",
      "blobGasUsed": "0xc1c0",
      "from": "0xa8bcd8ca1561c3f4716490157b74aa7fffb9b58c",
      "to": "0x00b036b58a818b1bc34d502d3fe730db729e62ac",
      "contractAddress": null,
      "daFootprintGasScalar": "0x190",
      "l1BaseFeeScalar": "0x7d0",
      "l1BlobBaseFee": "0x1",
      "l1BlobBaseFeeScalar": "0xdbba0",
      "l1Fee": "0xac",
      "l1GasPrice": "0xf",
      "l1GasUsed": "0x7cb"
    }
  ],
  "libraries": [],
  "pending": [],
  "returns": {},
  "timestamp": 1777758030383,
  "chain": 1301,
  "commit": "b3328be"
}