{
  "transactions": [
    {
      "hash": "0xaa44ca61c3f3a33cb688df5a7ad98588f42110a1517f36f2437c6dc5704e7495",
      "transactionType": "CREATE",
      "contractName": "ILInsuranceFund",
      "contractAddress": "0xecd529830d766451cc9a67df89297ad4bce8d064",
      "function": null,
      "arguments": [
        "0x760d57B6bC7Dc88021FD070089ce0522AA8583dB"
      ],
      "transaction": {
        "from": "0x760d57b6bc7dc88021fd070089ce0522aa8583db",
        "gas": "0x69060",
        "value": "0x0",
        "input": "0x608034606f57601f61051c38819003918201601f19168301916001600160401b03831184841017607357808492602094604052833981010312606f57516001600160a01b03811690819003606f575f80546001600160a01b03191691909117905560405161049490816100888239f35b5f80fd5b634e487b7160e01b5f52604160045260245ffdfe6080806040526004361015610057575b50361561001a575f80fd5b61002634600254610451565b6002556040513481527f2da466a7b24304f47e87fa2e1e5a81b9831ce54fec19055ce277ca2f39ba42c460203392a2005b5f3560e01c90816316c38b3c146103e9575080632bc43fd9146102b05780632e1a7d4d1461025e5780633dfd3873146101c35780635c975abb146101a15780637f5a7c7b146101795780638da4d3c91461015c5780638da5cb5b14610135578063b69ef8a81461011a578063d54ad2a1146100fd5763ff50abdc146100dc575f61000f565b346100f9575f3660031901126100f9576020600254604051908152f35b5f80fd5b346100f9575f3660031901126100f9576020600354604051908152f35b346100f9575f3660031901126100f957602047604051908152f35b346100f9575f3660031901126100f9575f546040516001600160a01b039091168152602090f35b346100f9575f3660031901126100f9576020600454604051908152f35b346100f9575f3660031901126100f9576001546040516001600160a01b039091168152602090f35b346100f9575f3660031901126100f957602060ff600554166040519015158152f35b346100f95760203660031901126100f9576004356001600160a01b038116908190036100f9575f546001600160a01b0316330361024f576001546001600160a01b038116610240576001600160a01b03191681176001557f4eab7b127c764308788622363ad3e9532de3dfba7845bd4f84c125a22544255a5f80a2005b635f7c8ab560e11b5f5260045ffd5b635fc483c560e01b5f5260045ffd5b346100f95760203660031901126100f9575f54600435906001600160a01b03163381900361024f575f80809381938282156102a7575bf11561029c57005b6040513d5f823e3d90fd5b506108fc610294565b346100f95760603660031901126100f9576004356001600160a01b038116908190036100f9576001546024359190604435906001600160a01b031633036103da5760ff600554166103cb57479081156103bc578381029080820485149015171561039157614e20600a910491048082105f146103b45750915b82156103a55761033b83600354610451565b600355600454905f198214610391575f80808686807f987d620f307ff6b94d58743cb7a7509f24071586a77759b77c2d4e29f75a2f9a6040859860018b016004558151908682526020820152a282f11561029c57005b634e487b7160e01b5f52601160045260245ffd5b635788801b60e11b5f5260045ffd5b905091610329565b63356680b760e01b5f5260045ffd5b63ab35696f60e01b5f5260045ffd5b635a91834f60e01b5f5260045ffd5b346100f95760203660031901126100f9576004358015158091036100f9575f546001600160a01b0316330361024f577f0e2fb031ee032dc02d8011dc50b816eb450cf856abd8261680dac74f72165bd29160209160ff196005541660ff8216176005558152a1005b919082018092116103915756fea26469706673582212204f91dfcacbb9f39eca10aad352c537e3e0ad00430a642d7411c0bfcb9999ebcd64736f6c634300081a0033000000000000000000000000760d57b6bc7dc88021fd070089ce0522aa8583db",
        "nonce": "0x13",
        "chainId": "0x515"
      },
      "additionalContracts": [],
      "isFixedGasLimit": false
    },
    {
      "hash": "0x9788e64420e1f0bbb0d934761d20dfb87c048b8033089c6b475764ec42f59857",
      "transactionType": "CREATE2",
      "contractName": "NeuralHook",
      "contractAddress": "0x68823875e53a6fbf81c791403029f5db22e949c0",
      "function": null,
      "arguments": [
        "0x00B036B58a818B1BC34d502D3fE730Db729e62AC",
        "0x760d57B6bC7Dc88021FD070089ce0522AA8583dB",
        "0xECd529830d766451cC9a67DF89297AD4BCe8d064"
      ],
      "transaction": {
        "from": "0x760d57b6bc7dc88021fd070089ce0522aa8583db",
        "to": "0x4e59b44847b379578588920ca78fbf26c0b4956c",
        "gas": "0x196a51",
        "value": "0x0",
        "input": "0x000000000000000000000000000000000000000000000000000000000000621460e03461012e57601f61155138819003918201601f19168301916001600160401b038311848410176101325780849260609460405283398101031261012e5761004781610146565b604061005560208401610146565b9201516001600160a01b038116929083900361012e57600180546001600160a01b03938416608052600164ffffffff0160a01b0319169190921617607d60aa1b17905560a0524660c0525f80546001600160a01b031916331790556040516113f6908161015b82396080518181816101ec015281816102a5015281816102fb0152818161041c015281816104ba015281816105170152818161067d015281816106d301528181610bc101528181610cc70152610db3015260a0518181816103d901526107c5015260c05181818161096a0152610c330152f35b5f80fd5b634e487b7160e01b5f52604160045260245ffd5b51906001600160a01b038216820361012e5756fe6080806040526004361015610012575f80fd5b5f905f3560e01c90816314bcec9f14610e7c5750806316c38b3c14610df757806321d0ee7014610da0578063259982e514610cb65780632984a81a14610c8d5780632d29abdc14610c725780633add5c0514610c5657806353190da114610c1c578063575e24b414610b695780635c975abb14610b4457806361833b9c1461087957806363075eb91461085d5780636c2bbe7e146106bd5780636fe7e6eb146106415780637adbf973146105c15780638acb698a146105a55780638da5cb5b1461057e5780639aa90ca7146105625780639f063efc14610503578063b47b2fb114610461578063b6a8b0fa14610408578063b7902303146103c3578063be23e866146103a7578063c0850ce71461038a578063ca2162471461036d578063caca95a414610350578063da3c300d1461032a578063dc4c90d3146102e5578063dc98354e14610273578063df18b7c214610240578063e1b4af69146101d8578063e2048503146101af5763ffde0f9714610189575f80fd5b346101ac57806003193601126101ac57602060ff60015460c01c16604051908152f35b80fd5b50346101ac57806003193601126101ac576001546040516001600160a01b039091168152602090f35b50346101ac576101e736610fe2565b5050507f00000000000000000000000000000000000000000000000000000000000000006001600160a01b0316330392506102319150505760405163e1b4af6960e01b8152602090f35b63f655705d60e01b8152600490fd5b50346101ac5760203660031901126101ac57602090600435815260038252604060018060a01b0391205416604051908152f35b50346101ac5760e03660031901126101ac5761028d610e96565b5060a03660231901126101ac576102a2610fbc565b507f00000000000000000000000000000000000000000000000000000000000000006001600160a01b0316330361023157604051636e4c1aa760e11b8152602090f35b50346101ac57806003193601126101ac576040517f00000000000000000000000000000000000000000000000000000000000000006001600160a01b03168152602090f35b50346101ac57806003193601126101ac57602062ffffff60015460a81c16604051908152f35b50346101ac57806003193601126101ac5760206040516102588152f35b50346101ac57806003193601126101ac576020604051610bb88152f35b50346101ac57806003193601126101ac5760206040516127108152f35b50346101ac57806003193601126101ac57602060405160038152f35b50346101ac57806003193601126101ac576040517f00000000000000000000000000000000000000000000000000000000000000006001600160a01b03168152602090f35b50346101ac5761041736610fe2565b5050507f00000000000000000000000000000000000000000000000000000000000000006001600160a01b03163303925061023191505057604051635b54587d60e11b8152602090f35b50346101ac576101603660031901126101ac5761047c610e96565b5060a03660231901126101ac5760603660c31901126101ac576101443567ffffffffffffffff81116104ff576104b6903690600401610ec0565b50507f00000000000000000000000000000000000000000000000000000000000000006001600160a01b031633036102315760409081519063b47b2fb160e01b82526020820152f35b5080fd5b50346101ac5761051236610f52565b5050507f00000000000000000000000000000000000000000000000000000000000000006001600160a01b03163303935061023192505050576040908151906327c18fbf60e21b82526020820152f35b50346101ac57806003193601126101ac57602060405160028152f35b50346101ac57806003193601126101ac57546040516001600160a01b039091168152602090f35b50346101ac57806003193601126101ac57602090604051908152f35b50346101ac5760203660031901126101ac576105db610e96565b81546001600160a01b0316330361063257600180546001600160a01b0319166001600160a01b039290921691821790557f3df77beb5db05fcdd70a30fc8adf3f83f9501b68579455adbd100b81809403948280a280f35b635fc483c560e01b8252600482fd5b50346101ac576101003660031901126101ac5761065c610e96565b5060a03660231901126101ac57610671610fbc565b5061067a610fd2565b507f00000000000000000000000000000000000000000000000000000000000000006001600160a01b0316330361023157604051636fe7e6eb60e01b8152602090f35b503461084a576106cc36610f52565b50949594507f000000000000000000000000000000000000000000000000000000000000000093925050506001600160a01b038216330361084e5761071460a091369061105c565b2090815f52600360205260018060a01b0360405f2054169081610749575b60408051633615df3f60e11b815260208101869052f35b906107578361076993611240565b5050506001600160a01b03169061110a565b92817f0a97dc7d23b4db9f07972f34f44d040e6aceb5bfaa0095318c6311646b7362c46020604051878152a2606484116107c3575b5081526003602052604080822080546001600160a01b031916905591505f8080610732565b7f00000000000000000000000000000000000000000000000000000000000000006001600160a01b031690813b1561084a5760409460645f928388519586948593632bc43fd960e01b855260018060a01b031660048501526024840152670de0b6b3a764000060448401525af11561079e576108429192505f9061103a565b5f905f61079e565b5f80fd5b63f655705d60e01b5f5260045ffd5b3461084a575f36600319011261084a576020604051611d4c8152f35b3461084a5761010036600319011261084a5760243560ff811680820361084a576064359062ffffff82169283830361084a5760843580151580910361084a5760a4359460ff8616860361084a5760c4359260e43567ffffffffffffffff811161084a576108ea903690600401610ec0565b6001549860ff8a60a01c16610b35576102588701808811610b21574211610b1257620f42408511610b03576040516020810191600435835260ff60f81b8660f81b166040830152604435604183015262ffffff60e81b8b60e81b1660618301528760f81b606483015260ff60f81b9060f81b1660658201528760668201527f000000000000000000000000000000000000000000000000000000000000000060868201523060601b60a6820152609a81526109a660ba8261103a565b51902060405160208101917f19457468657265756d205369676e6564204d6573736167653a0a3332000000008352603c820152603c81526109e8605c8261103a565b51902067ffffffffffffffff8211610aef5760405191610a12601f8201601f19166020018461103a565b808352368185011161084a576020815f92610a34968387013784010152611304565b506004811015610adb571590811591610ac4575b50610ab5577f6a5c0dae524af6ed70253d2b3bd2ecdb3509fd21a454559f2c1f776bc7f33ebf9660809662ffffff60a81b9060a81b169160ff60c01b9060c01b169063ffffffff60a81b1916171760015582600255604051938452602084015260408301526060820152a1005b638baa579f60e01b5f5260045ffd5b6001600160a01b0389811691161415905088610a48565b634e487b7160e01b5f52602160045260245ffd5b634e487b7160e01b5f52604160045260245ffd5b6358d620b360e01b5f5260045ffd5b639469143d60e01b5f5260045ffd5b634e487b7160e01b5f52601160045260245ffd5b63ab35696f60e01b5f5260045ffd5b3461084a575f36600319011261084a57602060ff60015460a01c166040519015158152f35b3461084a5761014036600319011261084a57610b83610e96565b5060a036602319011261084a5760603660c319011261084a576101243567ffffffffffffffff811161084a57610bbd903690600401610ec0565b50507f00000000000000000000000000000000000000000000000000000000000000006001600160a01b0316330361084e57606062ffffff60015460a81c1662400000604051916315d7892d60e21b83525f6020840152176040820152f35b3461084a575f36600319011261084a5760206040517f00000000000000000000000000000000000000000000000000000000000000008152f35b3461084a575f36600319011261084a5760206040516101f48152f35b3461084a575f36600319011261084a57602060405160018152f35b3461084a57604036600319011261084a576020610cae60243560043561110a565b604051908152f35b3461084a57610cc436610eee565b507f0000000000000000000000000000000000000000000000000000000000000000935050506001600160a01b038216330361084e5760a0610d0a610d1292369061105c565b208092611240565b5050505f828152600360205260409020546001600160a01b031615610d44575b60405163259982e560e01b8152602090f35b5f8281526003602090815260409182902080546001600160a01b0319166001600160a01b03909416938417905590519182527f1dc1e79998492a366b474c814d630d55c69f3880392a8d725892984f68833aa491a28080610d32565b3461084a57610dae36610eee565b5050507f00000000000000000000000000000000000000000000000000000000000000006001600160a01b03163303915061084e90505760405163021d0ee760e41b8152602090f35b3461084a57602036600319011261084a5760043580151580910361084a575f546001600160a01b03163303610e6d576001805460ff60a01b191660a083901b60ff60a01b161790556040519081527f0e2fb031ee032dc02d8011dc50b816eb450cf856abd8261680dac74f72165bd290602090a1005b635fc483c560e01b5f5260045ffd5b3461084a575f36600319011261084a576020906002548152f35b600435906001600160a01b038216820361084a57565b35906001600160a01b038216820361084a57565b9181601f8401121561084a5782359167ffffffffffffffff831161084a576020838186019501011161084a57565b9061016060031983011261084a576004356001600160a01b038116810361084a579160a060231982011261084a57602491608060c31983011261084a5760c491610144359067ffffffffffffffff821161084a57610f4e91600401610ec0565b9091565b906101a060031983011261084a576004356001600160a01b038116810361084a579160a060231982011261084a57602491608060c31983011261084a5760c49161014435916101643591610184359067ffffffffffffffff821161084a57610f4e91600401610ec0565b60c435906001600160a01b038216820361084a57565b60e435908160020b820361084a57565b61012060031982011261084a576004356001600160a01b038116810361084a579160a060231983011261084a5760249160c4359160e43591610104359067ffffffffffffffff821161084a57610f4e91600401610ec0565b90601f8019910116810190811067ffffffffffffffff821117610aef57604052565b91908260a091031261084a5760405160a0810181811067ffffffffffffffff821117610aef57604052809261109081610eac565b825261109e60208201610eac565b6020830152604081013562ffffff8116810361084a5760408301526060810135908160020b820361084a57606083019190915260800135906001600160a01b038216820361084a5760800152565b81156110f6570490565b634e487b7160e01b5f52601260045260245ffd5b9081158015611238575b6112325780821191821561122b5780925b1561122457505b670de0b6b3a7640000820291808304670de0b6b3a76400001490151715610b2157611156916110ec565b808002818104821482151715610b2157600182901b916001600160ff1b03811603610b2157670de0b6b3a76400009004670de0b6b3a76400000180670de0b6b3a764000011610b2157670de0b6b3a7640000820291808304670de0b6b3a76400001490151715610b21576111c9916110ec565b670de0b6b3a764000081101561121f5780670de0b6b3a76400000390670de0b6b3a76400008211610b215761271082029182046127101490670de0b6b3a7640000141715610b2157670de0b6b3a7640000900490565b505f90565b905061112c565b8192611125565b50505f90565b508015611114565b9190602090604051828101918252600660408201526040815261126460608261103a565b519020604051631e2eaeaf60e01b8152600481019190915292839060249082906001600160a01b03165afa9182156112f9575f926112c5575b506001600160a01b0382169160a081901c60020b9162ffffff60b883901c81169260d01c1690565b9091506020813d6020116112f1575b816112e16020938361103a565b8101031261084a5751905f61129d565b3d91506112d4565b6040513d5f823e3d90fd5b81519190604183036113345761132d9250602082015190606060408401519301515f1a9061133e565b9192909190565b50505f9160029190565b91907f7fffffffffffffffffffffffffffffff5d576e7357a4501ddfe92f46681b20a084116113b5579160209360809260ff5f9560405194855216868401526040830152606082015282805260015afa156112f9575f516001600160a01b038116156113ab57905f905f90565b505f906001905f90565b5050505f916003919056fea2646970667358221220f12466e89841f5148192bbb2157ac5183cab5d7fa92156dee12be8ce719aee7f64736f6c634300081a003300000000000000000000000000b036b58a818b1bc34d502d3fe730db729e62ac000000000000000000000000760d57b6bc7dc88021fd070089ce0522aa8583db000000000000000000000000ecd529830d766451cc9a67df89297ad4bce8d064",
        "nonce": "0x14",
        "chainId": "0x515"
      },
      "additionalContracts": [],
      "isFixedGasLimit": false
    },
    {
      "hash": "0xd37da1302fb560d3e26b282067eba4d08ddb848df58f25cc7a0eae69092596c4",
      "transactionType": "CALL",
      "contractName": "ILInsuranceFund",
      "contractAddress": "0xecd529830d766451cc9a67df89297ad4bce8d064",
      "function": "setHook(address)",
      "arguments": [
        "0x68823875E53A6FbF81C791403029f5Db22E949C0"
      ],
      "transaction": {
        "from": "0x760d57b6bc7dc88021fd070089ce0522aa8583db",
        "to": "0xecd529830d766451cc9a67df89297ad4bce8d064",
        "gas": "0xfe38",
        "value": "0x0",
        "input": "0x3dfd387300000000000000000000000068823875e53a6fbf81c791403029f5db22e949c0",
        "nonce": "0x15",
        "chainId": "0x515"
      },
      "additionalContracts": [],
      "isFixedGasLimit": false
    },
    {
      "hash": "0x2c855052a83a806fbf748950f052c2d42c269de632e5f94a4155b67052062ca9",
      "transactionType": "CALL",
      "contractName": null,
      "contractAddress": "0xecd529830d766451cc9a67df89297ad4bce8d064",
      "function": null,
      "arguments": null,
      "transaction": {
        "from": "0x760d57b6bc7dc88021fd070089ce0522aa8583db",
        "to": "0xecd529830d766451cc9a67df89297ad4bce8d064",
        "gas": "0xf0e1",
        "value": "0x2386f26fc10000",
        "input": "0x",
        "nonce": "0x16",
        "chainId": "0x515"
      },
      "additionalContracts": [],
      "isFixedGasLimit": false
    },
    {
      "hash": "0xd5976f3486de240d4469af65a9a3e4e1b640593092ec85bdce7c609aa0f31866",
      "transactionType": "CALL",
      "contractName": null,
      "contractAddress": "0x00b036b58a818b1bc34d502d3fe730db729e62ac",
      "function": "initialize((address,address,uint24,int24,address),uint160)",
      "arguments": [
        "(0x0000000000000000000000000000000000000000, 0x1c7D4B196Cb0C7B01d743Fbc6116a902379C7238, 8388608, 60, 0x68823875E53A6FbF81C791403029f5Db22E949C0)",
        "1771595571142957166519155961327389600"
      ],
      "transaction": {
        "from": "0x760d57b6bc7dc88021fd070089ce0522aa8583db",
        "to": "0x00b036b58a818b1bc34d502d3fe730db729e62ac",
        "gas": "0x117a3",
        "value": "0x0",
        "input": "0x6276cbbe00000000000000000000000000000000000000000000000000000000000000000000000000000000000000001c7d4b196cb0c7b01d743fbc6116a902379c72380000000000000000000000000000000000000000000000000000000000800000000000000000000000000000000000000000000000000000000000000000003c00000000000000000000000068823875e53a6fbf81c791403029f5db22e949c00000000000000000000000000000000001553267c66643216002f811eeea0ba0",
        "nonce": "0x17",
        "chainId": "0x515"
      },
      "additionalContracts": [],
      "isFixedGasLimit": false
    }
  ],
  "receipts": [
    {
      "status": "0x1",
      "cumulativeGasUsed": "0xa810e",
      "logs": [],
      "logsBloom": "0x00000000000000000000000000000000000000000000000000000000000000000000000000000000000000000000000000000000000000000000000000000000000000000000000000000000000000000000000000000000000000000000000000000000000000000000000000000000000000000000000000000000000000000000000000000000000000000000000000000000000000000000000000000000000000000000000000000000000000000000000000000000000000000000000000000000000000000000000000000000000000000000000000000000000000000000000000000000000000000000000000000000000000000000000000000000",
      "type": "0x2",
      "transactionHash": "0xaa44ca61c3f3a33cb688df5a7ad98588f42110a1517f36f2437c6dc5704e7495",
      "transactionIndex": "0x5",
      "blockHash": "0x07377c7ee993b25411a133ddb4b544038b2a04308c8deffe940492d5e2642baa",
      "blockNumber": "0x305b4e3",
      "gasUsed": "0x50c99",
      "effectiveGasPrice": "0x7a121",
      "blobGasUsed": "0x566d0",
      "from": "0x760d57b6bc7dc88021fd070089ce0522aa8583db",
      "to": null,
      "contractAddress": "0xecd529830d766451cc9a67df89297ad4bce8d064",
      "daFootprintGasScalar": "0x190",
      "l1BaseFeeScalar": "0x7d0",
      "l1BlobBaseFee": "0xcc1c",
      "l1BlobBaseFeeScalar": "0xdbba0",
      "l1Fee": "0x41191d0",
      "l1GasPrice": "0xe59c1",
      "l1GasUsed": "0x3751"
    },
    {
      "status": "0x1",
      "cumulativeGasUsed": "0x14e940",
      "logs": [],
      "logsBloom": "0x00000000000000000000000000000000000000000000000000000000000000000000000000000000000000000000000000000000000000000000000000000000000000000000000000000000000000000000000000000000000000000000000000000000000000000000000000000000000000000000000000000000000000000000000000000000000000000000000000000000000000000000000000000000000000000000000000000000000000000000000000000000000000000000000000000000000000000000000000000000000000000000000000000000000000000000000000000000000000000000000000000000000000000000000000000000",
      "type": "0x2",
      "transactionHash": "0xd5976f3486de240d4469af65a9a3e4e1b640593092ec85bdce7c609aa0f31866",
      "transactionIndex": "0x3",
      "blockHash": "0xf88f5b79d04c67bb42ab4cf9a4293f2030f1ce48b1154f7a5973748593a091b7",
      "blockNumber": "0x305b4e4",
      "gasUsed": "0x126675",
      "effectiveGasPrice": "0x7a121",
      "blobGasUsed": "0x11f350",
      "from": "0x760d57b6bc7dc88021fd070089ce0522aa8583db",
      "to": "0x4e59b44847b379578588920ca78fbf26c0b4956c",
      "contractAddress": null,
      "daFootprintGasScalar": "0x190",
      "l1BaseFeeScalar": "0x7d0",
      "l1BlobBaseFee": "0xcc1c",
      "l1BlobBaseFeeScalar": "0xdbba0",
      "l1Fee": "0xd8530aa",
      "l1GasPrice": "0xe59c1",
      "l1GasUsed": "0xb7d3"
    },
    {
      "status": "0x1",
      "cumulativeGasUsed": "0x15a14e",
      "logs": [
        {
          "address": "0xecd529830d766451cc9a67df89297ad4bce8d064",
          "topics": [
            "0x4eab7b127c764308788622363ad3e9532de3dfba7845bd4f84c125a22544255a",
            "0x00000000000000000000000068823875e53a6fbf81c791403029f5db22e949c0"
          ],
          "data": "0x",
          "blockHash": "0xf88f5b79d04c67bb42ab4cf9a4293f2030f1ce48b1154f7a5973748593a091b7",
          "blockNumber": "0x305b4e4",
          "blockTimestamp": "0x69f36230",
          "transactionHash": "0x2c855052a83a806fbf748950f052c2d42c269de632e5f94a4155b67052062ca9",
          "transactionIndex": "0x4",
          "logIndex": "0x1",
          "removed": false
        }
      ],
      "logsBloom": "0x00000000000000000000000000000000000000000000000000000000000000000000000000000000000000000010000000000000000000000000000000000000000000000000000000000000000000000000000000000000000000000000000000000000000000000000000000800000000000000000000000000004000000000000000000000000000000400000000000000100000000000000000000000000000000000000008000000000000000000000000000000000000000000000000000004000000000000001000000000000000000000000002000000000000000000000000000000000000000000000000000000000000000000000000000000000",
      "type": "0x2",
      "transactionHash": "0x2c855052a83a806fbf748950f052c2d42c269de632e5f94a4155b67052062ca9",
      "transactionIndex": "0x4",
      "blockHash": "0xf88f5b79d04c67bb42ab4cf9a4293f2030f1ce48b1154f7a5973748593a091b7",
      "blockNumber": "0x305b4e4",
      "gasUsed": "0xb80e",
      "effectiveGasPrice": "0x7a121",
      "blobGasUsed": "0x9c40",
      "from": "0x760d57b6bc7dc88021fd070089ce0522aa8583db",
      "to": "0xecd529830d766451cc9a67df89297ad4bce8d064",
      "contractAddress": null,
      "daFootprintGasScalar": "0x190",
      "l1BaseFeeScalar": "0x7d0",
      "l1BlobBaseFee": "0xcc1c",
      "l1BlobBaseFeeScalar": "0xdbba0",
      "l1Fee": "0x75addb",
      "l1GasPrice": "0xe59c1",
      "l1GasUsed": "0x640"
    },
    {
      "status": "0x1",
      "cumulativeGasUsed": "0x164fb3",
      "logs": [
        {
          "address": "0xecd529830d766451cc9a67df89297ad4bce8d064",
          "topics": [
            "0x2da466a7b24304f47e87fa2e1e5a81b9831ce54fec19055ce277ca2f39ba42c4",
            "0x000000000000000000000000760d57b6bc7dc88021fd070089ce0522aa8583db"
          ],
          "data": "0x000000000000000000000000000000000000000000000000002386f26fc10000",
          "blockHash": "0xf88f5b79d04c67bb42ab4cf9a4293f2030f1ce48b1154f7a5973748593a091b7",
          "blockNumber": "0x305b4e4",
          "blockTimestamp": "0x69f36230",
          "transactionHash": "0x9788e64420e1f0bbb0d934761d20dfb87c048b8033089c6b475764ec42f59857",
          "transactionIndex": "0x5",
          "logIndex": "0x2",
          "removed": false
        }
      ],
      "logsBloom": "0x00000000000000000000000000000000000000000000000000000000000000000000000000000000000000000000000000000000000000000000000000000000000000000000000000000000000000000000000000000000000000000000200000000000000000000004000000000000000000000000000000000004080200000000000000000000000000080000000000000000000000000000000000000000000000000000000000000000000000000000000000000000000000000000000000000000000000000001000000000000000000000000002000000000000000000040000000000000000000000000000000000000000000000000000000000000",
      "type": "0x2",
      "transactionHash": "0x9788e64420e1f0bbb0d934761d20dfb87c048b8033089c6b475764ec42f59857",
      "transactionIndex": "0x5",
      "blockHash": "0xf88f5b79d04c67bb42ab4cf9a4293f2030f1ce48b1154f7a5973748593a091b7",
      "blockNumber": "0x305b4e4",
      "gasUsed": "0xae65",
      "effectiveGasPrice": "0x7a121",
      "blobGasUsed": "0x9c40",
      "from": "0x760d57b6bc7dc88021fd070089ce0522aa8583db",
      "to": "0xecd529830d766451cc9a67df89297ad4bce8d064",
      "contractAddress": null,
      "daFootprintGasScalar": "0x190",
      "l1BaseFeeScalar": "0x7d0",
      "l1BlobBaseFee": "0xcc1c",
      "l1BlobBaseFeeScalar": "0xdbba0",
      "l1Fee": "0x75addb",
      "l1GasPrice": "0xe59c1",
      "l1GasUsed": "0x640"
    },
    {
      "status": "0x1",
      "cumulativeGasUsed": "0x171a27",
      "logs": [
        {
          "address": "0x00b036b58a818b1bc34d502d3fe730db729e62ac",
          "topics": [
            "0xdd466e674ea557f56295e2d0218a125ea4b4f0f6f3307b95f85e6110838d6438",
            "0x818c7b9f79660e8cd9a2605cd3bf4213d670cf46c632fa9ef2d1b474cd4c6f0f",
            "0x0000000000000000000000000000000000000000000000000000000000000000",
            "0x0000000000000000000000001c7d4b196cb0c7b01d743fbc6116a902379c7238"
          ],
          "data": "0x0000000000000000000000000000000000000000000000000000000000800000000000000000000000000000000000000000000000000000000000000000003c00000000000000000000000068823875e53a6fbf81c791403029f5db22e949c00000000000000000000000000000000001553267c66643216002f811eeea0ba00000000000000000000000000000000000000000000000000000000000052a29",
          "blockHash": "0xf88f5b79d04c67bb42ab4cf9a4293f2030f1ce48b1154f7a5973748593a091b7",
          "blockNumber": "0x305b4e4",
          "blockTimestamp": "0x69f36230",
          "transactionHash": "0xd37da1302fb560d3e26b282067eba4d08ddb848df58f25cc7a0eae69092596c4",
          "transactionIndex": "0x6",
          "logIndex": "0x3",
          "removed": false
        }
      ],
      "logsBloom": "0x00000000000000000000000000000000000000000000000000000000000000000000000000000000000000000000000000000000000004020000000000000000100000000000000000000000000000000000000000000000000000000000000000000000020000000000000000000800000000000000000000000000000000000000000000000008000000000008000000000001000000000000000000200000000000000000000000000000000000000000008000000000000000000000000000000000000000000000000000000000000000000000000000000000000020000000000000000000000000000000004000000000000402000000000000000010",
      "type": "0x2",
      "transactionHash": "0xd37da1302fb560d3e26b282067eba4d08ddb848df58f25cc7a0eae69092596c4",
      "transactionIndex": "0x6",
      "blockHash": "0xf88f5b79d04c67bb42ab4cf9a4293f2030f1ce48b1154f7a5973748593a091b7",
      "blockNumber": "0x305b4e4",
      "gasUsed": "0xca74",
      "effectiveGasPrice": "0x7a121",
      "blobGasUsed": "0xc1c0",
      "from": "0x760d57b6bc7dc88021fd070089ce0522aa8583db",
      "to": "0x00b036b58a818b1bc34d502d3fe730db729e62ac",
      "contractAddress": null,
      "daFootprintGasScalar": "0x190",
      "l1BaseFeeScalar": "0x7d0",
      "l1BlobBaseFee": "0xcc1c",
      "l1BlobBaseFeeScalar": "0xdbba0",
      "l1Fee": "0x92c347",
      "l1GasPrice": "0xe59c1",
      "l1GasUsed": "0x7cb"
    }
  ],
  "libraries": [],
  "pending": [],
  "returns": {},
  "timestamp": 1777558064838,
  "chain": 1301,
  "commit": "66c05fa"
}